:020000040800F2
:10000000B80800201D5200081D0900081F0900083B
:1000100023090008270900082B0900080000000038
:100020000000000000000000000000002F09000890
:1000300031090008000000003309000835090008F4
:10004000375200083752000837520008FD4D0008AB
:10005000375200083752000837520008375200085C
:10006000375200083752000837520008375200084C
:10007000375200083752000837520008375200083C
:10008000375200083752000837520008375200082C
:10009000375200083752000837520008375200081C
:1000A000375200083752000837520008375200080C
:1000B0003752000837520008A5750008375200086B
:1000C00037520008375200083752000837520008EC
:1000D0003752000891510008375200083752000883
:1000E00037520008375200083752000837520008CC
:1000F00037520008375200083752000837520008BC
:1001000037520008375200083752000837520008AB
:10011000375200083752000837520008375200089B
:10012000375200083752000837520008375200088B
:1001300000F002F800F076F80AA090E8000C824483
:100140008344AAF10107DA4501D100F06BF8AFF260
:10015000090EBAE80F0013F0010F18BFFB1A43F0A5
:100160000103184754B5000074B500000A444FF06D
:10017000000C10F8013B13F0070408BF10F8014B06
:100180001D1108BF10F8015B641E05D010F8016B4B
:10019000641E01F8016BF9D113F0080F1EBF10F8AF
:1001A000014BAD1C0C1B09D16D1E58BF01F801CBD2
:1001B000FAD505E014F8016B01F8016B6D1EF9D555
:1001C0009142D6D37047000000230024002500266A
:1001D000103A28BF78C1FBD8520728BF30C148BFAA
:1001E0000B607047662909F0A785642907F0C88766
:1001F000752907F0C587782907F0FE87632908F07D
:100200007C83732908F08183002070471FB508F0B4
:1002100093FB04000020002109F0D2F8E0601FBD2C
:1002200010B510BD08F088FC1146FFF7EFFF00F095
:1002300009F808F0A6FC03B4FFF7F2FF03BC04F0D2
:100240004DFF000096B04FF0000BD94600201490EF
:10025000044605460021FE48CDE912101091119187
:100260000F46884600BF00BF04F0CEFE4FF4165084
:1002700004F042FF00F050FC04F0E2FD04F0AEFE9A
:10028000002141F61F4004F059FE4FF4A06005F034
:1002900069FD04F054FD01F0D0FC4FF6FF7001F051
:1002A000ACFC4FF47840EB490880EBA018210B46DA
:1002B0003222CDE9001046210A2004F0C9FBE8A053
:1002C00018210B466E22CDE900104621502004F083
:1002D000BFFBE6A018210B463222CDE900102821F1
:1002E0000A2004F0B5FBE3A018210B466E22CDE9ED
:1002F00000102821502004F0ABFBE1488078E04951
:100300004978CDE90010DE4803781D22052140F22E
:10031000E67004F0B6FCDBA018210B463222CDE9D2
:100320000010FA210A2004F093FBD8A018210B46F4
:100330006E22CDE90010FA21502004F089FB002044
:10034000D34908600120D349C1F8B001C5E24FF498
:100350007840C0490880D048008800F4004078B355
:10036000CD4800780D9000260DE0CC48805DCC494A
:10037000088000BFCA48001F008800F04000002825
:10038000F8D0701CC6B20D988642EEDBC3480078E8
:10039000302805D105F03CFE8246012014900CE087
:1003A000BE480078312808D10020B94908600120F2
:1003B000B849C1F8B001022014900020B649088065
:1003C0001498012821D10020B1490860B149C1F831
:1003D000B00105F01DFEA0EB0A00069018200423D2
:1003E000009082215020069A04F089FA05F010FE50
:1003F000A0EB0A00039009F032FA0022A94BCDE9E4
:10040000040109F0A7F8CDE910010221A64805F082
:1004100018F878B900228E4BDDE9120108F0E6FFEA
:10042000CDE912010022A14BDDE9120109F092F899
:1004300004460D4622462B469DA10AA807F03CFE25
:10044000182000908E48027802234621502004F0A4
:1004500056FA182000908A484278022346217320D9
:1004600004F04DFA18200090854882780223462136
:10047000962004F044FA18200090814882880423D2
:100480002821502004F03BFA182000907C48827903
:10049000022328218C2004F032FA1820009078489A
:1004A000C27902232821AF2004F029FA002004F0A9
:1004B000F0FC0646012E01D10BF1010BBBF1000F40
:1004C00069D1022E01D109F10109484609EBD07129
:1004D0004910A9EB410100295ED16AA018210B4601
:1004E0003222CDE90010FA210A2004F0B1FA72A0FC
:1004F00018210B466E22CDE90010FA21502004F09D
:10050000A7FA6F4A6F4B2046294609F0BBF903D280
:100510000027DFF8B48136E0694A6A4B2046294655
:1005200009F0EAFA1BD80022684B2046294609F058
:10053000A9F914D8624A634B2046294609F012FBF8
:100540000022634BCDE9020109F0D8F900225E4B8D
:10055000CDE9040108F04AFF0746884613E000226F
:100560005A4B2046294609F0FDFA0022594BCDE9A5
:10057000020109F0C3F9584A584BCDE9040108F0CB
:1005800035FF07468846002041490C3908600120A4
:100590005349C1F88801BEE03AA018210B46322227
:1005A000CDE90010FA210A2004F052FA4DA01821DA
:1005B0000B466E22CDE90010FA21502004F048FAD3
:1005C0003F4A404B2046294609F05CF904D24FF0DF
:1005D0003337DFF8188197E0394A3A4B20462946ED
:1005E00009F08AFA1DD80022384B2046294609F026
:1005F00049F916D8324A334B2046294609F0B2FA57
:100600004FF099323A4BCDE9020109F077F94FF0FA
:100610003332364BCDE9040108F0E8FE0746884640
:1006200072E0274A274B2046294609F09BFA4FF0F3
:1006300099322F4BCDE9000109F060F92D4A2E4B7C
:10064000CDE9020108F0D2FE4FF03332274B55E0DE
:100650000000F03F1400002054494D453A000000CE
:1006600020203A20203A2020000000004441544538
:100670003A000000202020202F20202F20200000E2
:10068000820100204D4F44453A000000444159008A
:10069000AC01214200002142240000208C010020F6
:1006A0000438014000004E40000801400000244092
:1006B000252E326C660000004441592020000000C5
:1006C0009A999999999905400080404000003340DB
:1006D0000000354000000840CDCCCCCCCC74774035
:1006E000008022424E494748540000003373454081
:1006F00099D94140E17A14AE472F8240CDE90401F7
:1007000008F074FE074688460020744908600120FE
:100710007349C1F8A00138464146DDE9102308F0CD
:1007200065FECDE90E016FA107A8DDE90E2307F0F4
:10073000C3FCBBF1010F06D0BBF1020F2DD0BBF102
:10074000030F7CD153E0022E12D168480078401C80
:1007500066490870084680784978CDE900106348FA
:1007600003781B22052140F2E67004F08AFA13E0B8
:10077000032E11D15D480078401E5C490870084680
:1007800080784978CDE90010584803781B2205216C
:1007900040F2E67004F075FA58E0022E12D1534888
:1007A0004078401C51494870084680784978CDE926
:1007B00000104E4803781B22052140F2E67004F039
:1007C00060FA13E0032E11D148484078401E474993
:1007D0004870084680784978CDE90010434803788E
:1007E0001B22052140F2E67004F04BFA2EE0022EA7
:1007F00012D13E488078401C3C4988700846807879
:100800004978CDE90010394803781B22052140F2D0
:10081000E67004F036FA15E0032E13D133488078E1
:10082000401E32498870084680784978CDE900102A
:100830002E4803781B22052140F2E67000E002E01A
:1008400004F01FFA02E04FF0000B00BF00BF28A029
:1008500018210B463222CDE900100A21084604F087
:10086000F7F825A018210B46C822CDE900100A216F
:10087000502004F0EDF823A018210B463222CDE9D8
:10088000001064210A2004F0E3F80AA818210B469E
:100890006E22CDE900106421502004F0D9F81BA08D
:1008A00018210B463222CDE9001082210A2004F0E3
:1008B000CFF818A018210B463222CDE90010A02154
:1008C0000A2004F0C5F807A818210B466E22CDE9CE
:1008D0000010A021502004F0BBF838E588812242A6
:1008E00000002142252E316C6600000082010020AC
:1008F0004E554D203A000000323130303937303219
:1009000033330000444953203A0000005741495412
:100910003A000000505249203A000000704700BFE2
:10092000FEE700BFFEE700BFFEE700BFFEE770473F
:1009300070477047704700000CB500200190009090
:100940006C48006840F480306A49086000BF69481C
:10095000006800F4003000900198401C019000985D
:1009600018B90198B0F5A06FF1D16248006800F4A1
:10097000003010B10120009001E0002000900098AC
:10098000012843D15C48006840F010005A490860D3
:100990000846006820F0030008600846006840F040
:1009A0000200086053484068524948600846406861
:1009B00048600846406840F48060486008464068E7
:1009C00020F47C1048600846406840F4E810486015
:1009D0000846006840F08070086000BF4548006825
:1009E00000F000700028F9D04248406820F0030071
:1009F000404948600846406840F00200486000BF37
:100A00003C48406800F00C000828F9D10CBD10B536
:100A1000FFF792FF10BD10B53648006840F00100A6
:100A20003449086008464068344908403149486004
:100A300008460068324908402E49086008460068A8
:100A400020F4802008600846406820F4FE004860DA
:100A50004FF41F008860FFF7DAFF4FF0006029496C
:100A6000086010BD10B5002100200022214B5B68FA
:100A700003F00C0121B1042906D0082928D107E090
:100A8000214B224C236027E01F4B204C236023E0A6
:100A9000184B5B6803F47010164B5B6803F48032EC
:100AA000022303EB904022B9194B4343174C2360B8
:100AB0000DE0104B5B6803F4003323B1144B434348
:100AC000124C236003E0104B4343104C236003E0BF
:100AD0000D4B0E4C236000BF00BF064B5B68C3F399
:100AE00003130C4CE15C094B1B68CB40074C2360A3
:100AF00010BD000000100240002002400000FFF87E
:100B0000FFFFF6FE08ED00E000127A000000002072
:100B100000093D000400002008B50121242004F054
:100B2000B9FE4FF4C850ADF8000010208DF8030056
:100B300003208DF802006946094804F0EFFB4FF4EA
:100B40008071074804F097FC0420ADF80000694666
:100B5000044804F0E3FB0421024804F08CFC08BDC7
:100B600000080140001401404FF48071F84A5161BF
:100B700049005161F7490860802151611161890084
:100B8000116170474FF48071F14A11614900516160
:100B9000F04908608021516111618900116170473D
:100BA00000BF011EA0F10102D0B2FAD1704700B51A
:100BB0004FF08830E7490C390860091D08600020B3
:100BC000E44908608815E249086140004861402016
:100BD00048610220FFF7E4FFDE48001F006883B28F
:100BE0004020DB490861C00008614FF03330D9492B
:100BF0000C390860091D08604FF6FF70D549086080
:100C0000184600BD10B504460B462046FFF7ACFF62
:100C10004FF48070CE49086140004861CD480360C0
:100C20008020486108618000086110BD10B504464D
:100C30002046FFF799FFFFF7BAFF10BD00B5C64980
:100C40000889FFF791FF00BD4FF48071C04A116120
:100C500049005161BF4908608021516111618900DB
:100C60001161704730B5014601F01F04C1F345130F
:100C7000CA0AE50205EB43151544A8B230BD10B50C
:100C800003460C46B448808841F6631188427DD102
:100C9000B148807900283FD1AF480088401EC01A73
:100CA00083B2AD494889FFF75FFF4FF48070A849D0
:100CB0000861400048610020A64908608020A449DE
:100CC0004861086180000861401008614000486187
:100CD0000020A049086080209D494861086180008B
:100CE0000861401008614000486118129949086085
:100CF00080209749486108618000086140100861C0
:100D000040004861D8B2934908608020904948610A
:100D100008618000086141E08F494889FFF724FF9E
:100D20004FF480708A49086140004861181289496F
:100D30000860802086494861086180000861401091
:100D4000086140004861D8B282490860802080492B
:100D500048610861800008614010086140004861F6
:100D60007D480088401E00127A490860802078493A
:100D700048610861800008614010086140004861D6
:100D800075480078401EC0B2724900E047E0086034
:100D900080206F4948610861800008616E49888938
:100DA000FFF7E2FE4FF48070694908614000486136
:100DB0002012684908608020654948610861800008
:100DC00008614010086140004861E0B26149086074
:100DD00080205F4948610861800008614010086117
:100DE000400048615C484088401E00125949086034
:100DF00080205749486108618000086140100861FF
:100E00004000486154488078401EC0B25149086093
:100E100080204F49486108618000086196E04E4893
:100E2000808845F21051884250D14B494889FFF7DC
:100E30009BFE4FF4807046490861400048611812DB
:100E40004449086080204249486108618000086187
:100E500041494989491C88B2FFF786FE4FF48070EA
:100E60003B49086140004861D8B23A490860802097
:100E70003749486108618000086137498889FFF770
:100E800073FE4FF4807032490861400048612012BF
:100E90003049086080202E4948610861800008615F
:100EA0002D498989491C88B2FFF75EFE4FF4807096
:100EB0002749086140004861E0B226490860802067
:100EC000234948610861800008613FE02249488960
:100ED000FFF74AFE4FF480701D49086140004861E9
:100EE00018121C4908608020194948610861800077
:100EF00008614010086140004861D8B21549086097
:100F0000802013494861086180000861124988897E
:100F1000FFF72AFE4FF480700D49086140004861D8
:100F200020120C490860802009494861086180004E
:100F300008614010086140004861E0B2054908605E
:100F400080200349486108618000086110BD0000ED
:100F5000001001400C0C0140740100202DE9F0410B
:100F600005460E46FE480088A84203DDFC4840883E
:100F7000B04202DC0020BDE8F08131462846FFF790
:100F80007EFEF748808845F21051884204D14FF424
:100F90003850FFF7E9FD02E02E20FFF7E5FDFFF7EF
:100FA00006FE0446EE48808841F66311884201D16E
:100FB0002046E0E7FFF7FBFD0446FFF7F8FD80461B
:100FC000E7B24FF6FF7000EA0727E012C002B9123D
:100FD00040EA411040EAE820CDE700B5E0488088CB
:100FE00045F21051884204D14FF42450FFF7BCFD64
:100FF00002E02920FFF7B8FD00BD00B5D848808881
:1010000045F21051884204D14FF42050FFF7ACFD57
:1010100002E02820FFF7A8FD00BDF0B5054600243A
:101020000027CF488079012805D1CD48808841F636
:101030006311884208D1CA488079F0B9C8488088CD
:1010400041F66311884218D1082D15D2DFE805F06A
:101050000406080A0C0E101206250DE007250BE009
:10106000042509E0052507E0012505E0002503E04A
:10107000032501E0022500BF00BF082D1CD2DFE8D8
:1010800005F00406090C0F12151800BF14E044F017
:10109000800411E044F040040EE044F0C0040BE092
:1010A00044F0200408E044F0600405E044F0A004AB
:1010B00002E044F0E00400BF00BFA948808845F288
:1010C0001051884202D14FF4585700E03627A44807
:1010D000808849F24131884205D0A148808847F292
:1010E0008971884201D144F0080421463846FFF74F
:1010F00089FD9B48808841F6631188421DD004F029
:10110000200068B19648008895494988884214DAD9
:1011100093480688408892490880084646800CE03B
:101120008F4800888E494988884206DD8C480688A9
:1011300040888B490880084646808948808845F267
:10114000105188427ED186494889FFF70DFD4FF442
:10115000807084490861400048610020824908602D
:101160008020804948610861800008617C49498984
:10117000491C88B2FFF7F8FC4FF480707949086188
:101180004000486100207849086080207549486126
:1011900008618000086172494989891C88B2FFF79B
:1011A000E3FC4FF480706F490861400048616C486F
:1011B0000088401E00126C4908608020694948611F
:1011C00008618000086166494989C91C88B2FFF737
:1011D000CBFC4FF48070634908614000486160486F
:1011E0000078401EC0B26049086080205D494861B7
:1011F0000861800008615A498889FFF7B5FC4FF4FF
:1012000080705849086140004861002056490860D4
:1012100080205449486108618000086150498989EB
:10122000491C88B2FFF7A0FC4FF480704D4908615B
:101230004000486100204C490860802049494861CD
:10124000086100E032E08000086145498989891C15
:1012500088B2FFF789FC4FF4807042490861400072
:1012600048613F484088401E00123F490860802086
:101270003C49486108618000086139498989C91C75
:1012800088B2FFF771FC4FF4807036490861400066
:10129000486133488078401EC0B2334908608020DE
:1012A0003049486108618000086186E02C4948891E
:1012B000FFF75AFC4FF480702A49086140004861EA
:1012C0000020294908608020264948610861800083
:1012D0000861401008614000486100202249086010
:1012E0008020204948610861800008614010086141
:1012F000400048611A480088401E00121A490860E0
:101300008020184948610861800008614010086128
:101310004000486112480078401EC0B2124908607F
:101320008020104948610861800008610C49888963
:10133000FFF71AFC4FF480700A49086140004861C9
:101340000020094908608020064948610861800042
:10135000086140100861400048610020024905E032
:1013600074010020001001400C0C01400860802036
:10137000FE49486108618000086140100861400032
:101380004861FB484088401E0012FA4908608020EE
:10139000F64948610861800008614010086140001A
:1013A0004861F3488078401EC0B2F249086080204E
:1013B000EE494861086180000861F0BD30B504461F
:1013C0000D4629462046FFF75AFCFFF737FC4FF43D
:1013D0008070E649086140004861E7480088E549B7
:1013E00008608020E149486108618000086130BDE3
:1013F00030B503460C461546DD48808845F210514D
:10140000884250D1DA494889FFF7AEFB4FF480702B
:10141000D6490861400048611812D649086080200A
:10142000D2494861086180000861D1494989491C55
:1014300088B2FFF799FB4FF48070CC4908614000F7
:101440004861D8B2CB4908608020C849486108612A
:1014500080000861C6498889FFF786FB4FF48070D9
:10146000C2490861400048612012C24908608020DA
:10147000BE494861086180000861BD498989491CED
:1014800088B2FFF771FB4FF48070B84908614000E3
:101490004861E0B2B74908608020B44948610861FA
:1014A00080000861C3E0B248808841F66311884239
:1014B0007DD1AF48807920B9AD480088401EC01A60
:1014C00083B2AB494889FFF74FFB4FF48070A749BF
:1014D0000861400048611812A64908608020A349AD
:1014E000486108618000086140100861400048615F
:1014F000D8B2A049086080209C49486108618000FA
:10150000086140100861400048611812994908605C
:101510008020964948610861800008614010086198
:1015200040004861D8B29349086080208F494861E3
:101530000861800008618E498889FFF715FB4FF428
:1015400080708A490861400048612012894908601A
:101550008020864948610861800008614010086168
:1015600040004861E0B28349086080207F494861BB
:101570000861800008614010086140004861201245
:101580007C490860802079494861086180000861D1
:101590004010086140004861E0B276490860802050
:1015A0007249486108618000086140E0FFE77049C6
:1015B0004889FFF7D9FA4FF480706C490861400000
:1015C000486118126B4908608020684948610861C9
:1015D000800008614010086140004861D8B2654948
:1015E00008608020614948610861800008616049A5
:1015F0008889FFF7B9FA4FF480705C4908614000B0
:10160000486120125B4908608020584948610861A0
:10161000800008614010086140004861E0B255490F
:1016200008608020514948610861800008614FF4DA
:1016300080704E494861400048614D4800894D49DD
:1016400008608020494948610861800008614010B5
:101650000861400048614748056080204861086192
:101660008000086130BD2DE9F0410446BE20FFF73F
:101670007BFA4FF480703D490861400048610520C5
:101680003C49086080203949486108618000086150
:101690004010086140004861204608F0E0F8054627
:1016A0004FF06632354B08F029F9074608F0AAF8E2
:1016B0003049086080202D49486108618000086138
:1016C000401008614000486101202A4908608020DC
:1016D00026494861086180000861401008614000A7
:1016E0004861FF2023490860802020494861086143
:1016F00080000861401008614000486100201D49D9
:101700000860802019494861086180000861401024
:101710000861400048610020164908608020134994
:101720004861086180000861BDE8F08110B5044699
:101730000F488471002C50D1F0200D4908804FF4DF
:10174000A07048800846808845F2105188421BD11D
:101750004FF43050064908814FF4285048814FF427
:101760002C5088814FF4F070088009E0001001408F
:10177000740100200C0C0140140000206666044037
:101780004FF4487048801AE0FE48808841F66311A3
:1017900088420DD12C20FB4908812B2048812A202A
:1017A00088814FF4F07008804FF44870488006E05C
:1017B0002C20F44908812A2048812B208881F14877
:1017C000808845F2103188424CD14FF4A070ED4929
:1017D00008804FF4F070488044E04FF4A070E9496D
:1017E0000880F02048800846808845F210518842E1
:1017F00010D14FF43050E34908814FF4285048810C
:101800004FF42C5088814FF4487008804FF4F070EA
:1018100048801AE0DB48808841F6631188420DD188
:101820002C20D84908812A2048812B2088814FF418
:10183000487008804FF4F070488006E02C20D149B1
:1018400008812A2048812B208881CE48808845F253
:101850001031884206D14FF4F070CA4908804FF425
:10186000A07048800020FFF7D8FB10BD2DE9F041A3
:1018700004460D461646A019401E87B2E818401EC1
:101880001FFA80F8BF48808841F6631188427DD1F5
:10189000BC488079012879D0BA480088801B001B99
:1018A00084B2E818401E83B2B6494889FFF75CF954
:1018B0004FF48070B4490861400048612012B34978
:1018C00008608020B04948610861800008614010CC
:1018D000086140004861E0B2AC4908608020AA4934
:1018E000486108618000086140100861400048615B
:1018F000A019401E0012A54908608020A249486135
:101900000861800008614010086140004861A0192A
:10191000401EC0B29D49086080209B494861086113
:101920008000086197498889FFF71EF94FF480709D
:101930009549086140004861281294490860802058
:1019400091494861086180000861401008614000C9
:101950004861E8B28D49086080208B494861086180
:1019600080000861401008614000486118128749F2
:101970000860802084494861086180000861401047
:10198000086140004861D8B2804900E007E0086083
:1019900080207D4948610861800008612BE1794819
:1019A000808845F2105188427ED176494889FFF7F8
:1019B000DBF84FF4807074490861400048612012E0
:1019C00072490860802070494861086180000861A0
:1019D0006C494989491C88B2FFF7C6F84FF48070FA
:1019E0006949086140004861E0B2684908608020A8
:1019F0006549486108618000086162494989891C1C
:101A000088B2FFF7B1F84FF480705F490861400079
:101A1000486138125D49086080205B49486108616F
:101A20008000086157494989C91C88B2FFF79CF8B2
:101A30004FF480705449086140004861F8B253493E
:101A400008608020504948610861800008614D4964
:101A50008889FFF789F84FF480704B49086140008E
:101A60004861281249490860802047494861086157
:101A70008000086143498989491C88B2FFF774F8DE
:101A80004FF480704049086140004861E8B23F4926
:101A9000086080203C49486108618000086139493C
:101AA0008989891C88B200E028E0FFF75DF84FF4CF
:101AB000807035490861400048614FEA2820334969
:101AC00008608020304948610861800008612D4924
:101AD0008989C91C88B2FFF747F84FF480702A49FA
:101AE00008614000486108F0FF0028490860802034
:101AF000254948610861800008617CE021494889E6
:101B0000FFF732F84FF480701F49086140004861C8
:101B100020121E49086080201B494861086180002E
:101B200008614010086140004861E0B21749086050
:101B300080201549486108618000086140100861F3
:101B40004000486138121149086080200E49486100
:101B50000861800008614010086140004861F8B2E7
:101B60000A490860802008494861086180000861CE
:101B700004498889FEF7F8FF4FF480700249086134
:101B8000400005E074010020001001400C0C0140F1
:101B900048612812FE4908608020FE4948610861BA
:101BA000800008614010086140004861E8B2F849CF
:101BB00008608020F7494861086180000861401092
:101BC0000861400048614FEA2820F1490860802000
:101BD000F0494861086180000861401008614000D8
:101BE000486108F0FF00EA4908608020E94948613F
:101BF000086180000861BDE8F08170B504460026E8
:101C0000E54805884088454300210846FFF737F836
:101C1000FFF714F800BF0DE04FF48070DD49086154
:101C200040004861DA480460802048610861800013
:101C30000861761CAE42EFD370BD08B501211920B2
:101C400003F028FE0121D54803F039FC4FF4F86079
:101C5000ADF8000010208DF8030003208DF802007D
:101C60006946CC4803F05AFB4FF4F861C94803F0C9
:101C700002FC4FF6FF70ADF800006946C4480C380E
:101C800003F04CFB4FF6FF71C1480C3803F0F3FB37
:101C9000322003F0F6F901210020FEF7B3FF3220D5
:101CA00003F0EFF9D320FEF75FFFFEF780FFBA499C
:101CB0008880FEF77CFFB8498880FEF778FFB64938
:101CC0008880084680884FF6FF7101EA0020B249FB
:101CD0008880FEF76CFFB04989880843AE49888048
:101CE0000846808849F2413188427DD00420FEF7C1
:101CF0003BFFFEF75CFFA8498880FEF758FFA64926
:101D00008880FEF754FFA4498880084680884FF6F3
:101D1000FF7101EA0020A0498880FEF748FF9E4934
:101D2000898808439C4988800846808848F2525137
:101D3000884203D147F28970974988809648808805
:101D400047F2897188427AD0D420FEF70DFFFEF762
:101D50002EFF91498880FEF72AFF8F498880FEF781
:101D600026FF8D498880084680884FF6FF7101EA7A
:101D7000002089498880FEF71AFF8749898808432F
:101D8000854988800846808845F21031884256D0BF
:101D90004FF45A40FEF7E8FEFEF709FF7E498880BF
:101DA0004FF45B40FEF7E0FEFEF701FF7A498880C2
:101DB000084680884FF6FF7101EA00207649888046
:101DC0004FF45C40FEF7D0FEFEF7F1FE72498988C1
:101DD00008437149888008468088B0F5004F02D1D9
:101DE00045F21050888000E029E06B48808845F279
:101DF0001051884223D0A120FEF7B6FEFEF7D7FE91
:101E000065498880FEF7D3FE63498880084680884C
:101E10004FF6FF7101EA00205F498880FEF7C7FE98
:101E20005D49898808435C4988800846808845F276
:101E30006171884203D141F6631057498880564842
:101E4000808849F2413188427ED1CF20FEF78CFE56
:101E50000020FEF797FEC120FEF794FE3020FEF72B
:101E600091FEED20FEF780FE6420FEF78BFE03203E
:101E7000FEF788FE1220FEF785FE8120FEF782FE27
:101E8000E820FEF771FE8520FEF77CFE1020FEF7AD
:101E900079FE7A20FEF776FECB20FEF765FE39202C
:101EA000FEF770FE2C20FEF76DFE0020FEF76AFEA6
:101EB0003420FEF767FE0220FEF764FEF720FEF7EF
:101EC00053FE2020FEF75EFEEA20FEF74DFE0020C6
:101ED000FEF758FE0020FEF755FEC020FEF744FE38
:101EE0001B20FEF74FFEC120FEF73EFE0120FEF74D
:101EF00049FEC520FEF738FE3020FEF743FE3020B5
:101F0000FEF740FEC720FEF72FFEB720FEF73AFE91
:101F10003620FEF729FE4820FEF734FE3A20FEF771
:101F200023FE5520FEF72EFEB120FEF71DFE0020F9
:101F3000FEF728FE1A20FEF725FEB620FEF714FE57
:101F40000A20FEF71FFE00E0A0E0A220FEF71AFE26
:101F5000F220FEF709FE0020FEF714FE2620FEF711
:101F600003FE0120FEF70EFEE020FEF7FDFD0F2030
:101F7000FEF708FE2A20FEF705FE2820FEF702FEE7
:101F80000820FEF7FFFD0E20FEF7FCFD082007E00D
:101F90000C0C0140001001407401002000023000D0
:101FA000FEF7F0FD5420FEF7EDFDA920FEF7EAFD57
:101FB0004320FEF7E7FD0A20FEF7E4FD0F20FEF7C1
:101FC000E1FD0020FEF7DEFD0020FEF7DBFD002036
:101FD000FEF7D8FD0020FEF7D5FDE120FEF7C4FD99
:101FE0000020FEF7CFFD1520FEF7CCFD1720FEF7F1
:101FF000C9FD0720FEF7C6FD1120FEF7C3FD062030
:10200000FEF7C0FD2B20FEF7BDFD5620FEF7BAFD02
:102010003C20FEF7B7FD0520FEF7B4FD1020FEF7CB
:10202000B1FD0F20FEF7AEFD3F20FEF7ABFD3F20D8
:10203000FEF7A8FD0F20FEF7A5FD2B20FEF794FD6F
:102040000020FEF79FFD0020FEF79CFD0120FEF71B
:1020500099FD3F20FEF796FD2A20FEF785FD002022
:10206000FEF790FD0020FEF78DFD0020FEF78AFDB3
:10207000EF20FEF787FD1120FEF776FD782003F0B4
:1020800000F82920FEF770FD02F05FBAFE48808854
:1020900047F2897188427CD11120FEF765FD7820D6
:1020A00002F0EFFF3620FEF75FFD0020FEF76AFD2D
:1020B0003A20FEF759FD0520FEF764FDB220FEF739
:1020C00053FD0C20FEF75EFD0C20FEF75BFD0020AB
:1020D000FEF758FD3320FEF755FD3320FEF752FD85
:1020E000B720FEF741FD3520FEF74CFDBB20FEF783
:1020F0003BFD3220FEF746FDC020FEF735FD0C20EB
:10210000FEF740FDC220FEF72FFD0120FEF73AFD4D
:10211000C320FEF729FD1020FEF734FDC420FEF792
:1021200023FD2020FEF72EFDC620FEF71DFD0F200B
:10213000FEF728FDD020FEF717FDA420FEF722FDB4
:10214000A120FEF71FFDE020FEF70EFDD020FEF7D8
:1021500019FD0020FEF716FD0220FEF713FD0720F3
:10216000FEF710FD0A20FEF70DFD2820FEF70AFD00
:102170003220FEF707FD4420FEF704FD4220FEF763
:1021800001FD0620FEF7FEFC0E20FEF7FBFC1220F0
:1021900000E056E0FEF7F6FC1420FEF7F3FC1720F3
:1021A000FEF7F0FCE120FEF7DFFCD020FEF7EAFCB2
:1021B0000020FEF7E7FC0220FEF7E4FC0720FEF714
:1021C000E1FC0A20FEF7DEFC2820FEF7DBFC3120D4
:1021D000FEF7D8FC5420FEF7D5FC4720FEF7D2FCD2
:1021E0000E20FEF7CFFC1C20FEF7CCFC1720FEF7DC
:1021F000C9FC1B20FEF7C6FC1E20FEF7C3FC2A20EC
:10220000FEF7B2FC0020FEF7BDFC0020FEF7BAFC92
:102210000020FEF7B7FCEF20FEF7B4FC2B20FEF702
:10222000A3FC0020FEF7AEFC0020FEF7ABFC012073
:10223000FEF7A8FC3F20FEF7A5FC2920FEF794FC42
:1022400022E79148808845F21031884240F07C872F
:10225000ED20FEF789FC0120FEF794FCFE20FEF73E
:1022600091FCEE20FEF780FCDE20FEF78BFC2120A7
:10227000FEF788FCF120FEF777FC0120FEF782FCD8
:10228000DF20FEF771FC1020FEF77CFCC420FEF777
:102290006BFC8F20FEF776FCC620FEF765FC002065
:1022A000FEF770FCE220FEF76DFCE220FEF76AFC10
:1022B000E220FEF767FCBF20FEF756FCAA20FEF7DF
:1022C00061FCB020FEF750FC0D20FEF75BFC002007
:1022D000FEF758FC0D20FEF755FC0020FEF752FCDF
:1022E0001120FEF74FFC0020FEF74CFC1920FEF7F2
:1022F00049FC0020FEF746FC2120FEF743FC0020AD
:10230000FEF740FC2D20FEF73DFC0020FEF73AFCD6
:102310003D20FEF737FC0020FEF734FC5D20FEF781
:1023200031FC0020FEF72EFC5D20FEF72BFC002088
:10233000FEF728FCB120FEF717FC8020FEF722FCF8
:102340000020FEF71FFC8B20FEF71CFC0020FEF790
:1023500019FC9620FEF716FC0020FEF713FCB220B5
:10236000FEF702FC0020FEF70DFC0020FEF70AFC41
:102370000220FEF707FC0020FEF704FC0320FEF716
:1023800001FC0020FEF7FEFBB320FEF7EDFB002072
:10239000FEF7F8FB0020FEF7F5FB0020FEF7F2FB4E
:1023A0000020FEF7EFFB0020FEF7ECFB0020FEF71D
:1023B000E9FB0020FEF7E6FB0020FEF7E3FB002030
:1023C000FEF7E0FB0020FEF7DDFB0020FEF7DAFB66
:1023D0000020FEF7D7FB0020FEF7D4FB0020FEF71D
:1023E000D1FB0020FEF7CEFB0020FEF7CBFB002048
:1023F000FEF7C8FB0020FEF7C5FB0020FEF7C2FB7E
:102400000020FEF7BFFB0020FEF7BCFB0020FEF71C
:10241000B9FB0020FEF7B6FB0020FEF7B3FBB420AB
:10242000FEF7A2FB8B20FEF7ADFB0020FEF7AAFB18
:102430009620FEF7A7FB0020FEF7A4FBA120FEF7E5
:10244000A1FB0020FEF79EFBB520FEF78DFB0220CE
:10245000FEF798FB0020FEF795FB0320FEF792FBAA
:102460000020FEF78FFB0420FEF78CFB0020FEF718
:1024700089FBB620FEF778FB0020FEF783FB0020E7
:10248000FEF780FBB72001E074010020FEF76CFB33
:102490000020FEF777FB0020FEF774FB3F20FEF7DD
:1024A00071FB0020FEF76EFB5E20FEF76BFB002049
:1024B000FEF768FB6420FEF765FB0020FEF762FB79
:1024C0008C20FEF75FFB0020FEF75CFBAC20FEF7E4
:1024D00059FB0020FEF756FBDC20FEF753FB0020E3
:1024E000FEF750FB7020FEF74DFB0020FEF74AFB85
:1024F0009020FEF747FB0020FEF744FBEB20FEF7A1
:1025000041FB0020FEF73EFBDC20FEF73BFB0020FA
:10251000FEF738FBB820FEF727FB0020FEF732FB62
:102520000020FEF72FFB0020FEF72CFB0020FEF71B
:1025300029FB0020FEF726FB0020FEF723FB0020EE
:10254000FEF720FB0020FEF71DFBBA20FEF70CFB78
:102550002420FEF717FB0020FEF714FB0020FEF7F7
:1025600011FB0020FEF70EFBC120FEF7FDFA202034
:10257000FEF708FB0020FEF705FB5420FEF702FBE8
:102580000020FEF7FFFAFF20FEF7FCFA0020FEF71E
:10259000F9FAC220FEF7E8FA0A20FEF7F3FA002063
:1025A000FEF7F0FA0420FEF7EDFA0020FEF7EAFA53
:1025B000C320FEF7D9FA3C20FEF7E4FA0020FEF72C
:1025C000E1FA3A20FEF7DEFA0020FEF7DBFA3920C6
:1025D000FEF7D8FA0020FEF7D5FA3720FEF7D2FA38
:1025E0000020FEF7CFFA3C20FEF7CCFA0020FEF7E1
:1025F000C9FA3620FEF7C6FA0020FEF7C3FA3220E9
:10260000FEF7C0FA0020FEF7BDFA2F20FEF7BAFA57
:102610000020FEF7B7FA2C20FEF7B4FA0020FEF7F0
:10262000B1FA2920FEF7AEFA0020FEF7ABFA262019
:10263000FEF7A8FA0020FEF7A5FA2420FEF7A2FA7A
:102640000020FEF79FFA2420FEF79CFA0020FEF7F8
:1026500099FA2320FEF796FA0020FEF793FA3C2021
:10266000FEF790FA0020FEF78DFA3620FEF78AFA80
:102670000020FEF787FA3220FEF784FA0020FEF7EA
:1026800081FA2F20FEF77EFA0020FEF77BFA2C203D
:10269000FEF778FA0020FEF775FA2920FEF772FAA5
:1026A0000020FEF76FFA2620FEF76CFA0020FEF7F6
:1026B00069FA2420FEF766FA0020FEF763FA242068
:1026C000FEF760FA0020FEF75DFA2320FEF75AFAC3
:1026D0000020FEF757FAC420FEF746FA6220FEF704
:1026E00051FA0020FEF74EFA0520FEF74BFA0020C3
:1026F000FEF748FA8420FEF745FA0020FEF742FA7A
:10270000F020FEF73FFA0020FEF73CFA1820FEF713
:1027100039FA0020FEF736FAA420FEF733FA00203B
:10272000FEF730FA1820FEF72DFA0020FEF72AFAFD
:102730005020FEF727FA0020FEF724FA0C20FEF7BF
:1027400021FA0020FEF71EFA1720FEF71BFA0020E0
:10275000FEF718FA9520FEF715FA0020FEF712FA98
:10276000F320FEF70FFA0020FEF70CFAE620FEF742
:1027700009FA0020FEF706FAC520FEF7F5F9322027
:10278000FEF700FA0020FEF7FDF94420FEF7FAF903
:102790000020FEF7F7F96520FEF7F4F90020FEF7B8
:1027A000F1F97620FEF7EEF90020FEF7EBF988202C
:1027B000FEF7E8F90020FEF7E5F9C620FEF7D4F9A8
:1027C0002020FEF7DFF90020FEF7DCF91720FEF7E6
:1027D000D9F90020FEF7D6F90120FEF7D3F9002041
:1027E000FEF7D0F9C720FEF7BFF90020FEF7CAF9BF
:1027F0000020FEF7C7F90020FEF7C4F90020FEF71D
:10280000C1F9C820FEF7B0F90020FEF7BBF900209F
:10281000FEF7B8F90020FEF7B5F90020FEF7B2F98F
:10282000C920FEF7A1F90020FEF7ACF90020FEF761
:10283000A9F90020FEF7A6F90020FEF7A3F9002071
:10284000FEF7A0F90020FEF79DF90020FEF79AF9A7
:102850000020FEF797F90020FEF794F90020FEF71C
:1028600091F90020FEF78EF90020FEF78BF9002089
:10287000FEF788F90020FEF785F90020FEF782F9BF
:102880000020FEF77FF9E020FEF76EF91620FEF734
:1028900079F90020FEF776F91C20FEF773F9002085
:1028A000FEF770F92120FEF76DF90020FEF76AF9B6
:1028B0003620FEF767F90020FEF764F94620FEF7A0
:1028C00061F90020FEF75EF95220FEF75BF9002067
:1028D000FEF758F96420FEF755F90020FEF752F98B
:1028E0007A20FEF74FF90020FEF74CF98B20FEF717
:1028F00049F90020FEF746F99920FEF743F9002038
:10290000FEF740F9A820FEF73DF90020FEF73AF95E
:10291000B920FEF737F90020FEF734F9C420FEF79E
:1029200031F90020FEF72EF9CA20FEF72BF900201E
:10293000FEF728F9D220FEF725F90020FEF722F94C
:10294000D920FEF71FF90020FEF71CF9E020FEF762
:1029500019F90020FEF716F9F320FEF713F900200D
:10296000FEF710F9E120FEF7FFF81620FEF70AF94E
:102970000020FEF707F91C20FEF704F90020FEF7FF
:1029800001F92220FEF7FEF80020FEF7FBF83620C2
:10299000FEF7F8F80020FEF7F5F84520FEF7F2F80C
:1029A0000020FEF7EFF85220FEF7ECF80020FEF7CB
:1029B000E9F86420FEF7E6F80020FEF7E3F87A2055
:1029C000FEF7E0F80020FEF7DDF88B20FEF7DAF8DE
:1029D0000020FEF7D7F89920FEF7D4F80020FEF784
:1029E000D1F8A820FEF7CEF80020FEF7CBF8B920EA
:1029F000FEF7C8F80020FEF7C5F8C420FEF7C2F8BD
:102A00000020FEF7BFF8CA20FEF7BCF80020FEF752
:102A1000B9F8D220FEF7B6F80020FEF7B3F8D820B8
:102A2000FEF7B0F80020FEF7ADF8E020FEF7AAF8B8
:102A30000020FEF7A7F8F320FEF7A4F80020FEF729
:102A4000A1F8E220FEF790F80520FEF79BF80020A1
:102A5000FEF798F80B20FEF795F80020FEF792F8A5
:102A60001B20FEF78FF80020FEF78CF83420FEF7CD
:102A700089F80020FEF786F84420FEF783F800204E
:102A8000FEF780F84F20FEF77DF80020FEF77AF879
:102A90006120FEF777F80020FEF774F87920FEF742
:102AA00071F80020FEF76EF88820FEF76BF8002022
:102AB000FEF768F89720FEF765F80020FEF762F849
:102AC000A620FEF75FF80020FEF75CF8B720FEF7BF
:102AD00059F80020FEF756F8C220FEF753F8002000
:102AE000FEF750F8C720FEF74DF80020FEF74AF831
:102AF000D120FEF747F80020FEF744F8D620FEF775
:102B000041F80020FEF73EF8DD20FEF73BF80020FC
:102B1000FEF738F8F320FEF735F80020FEF732F81C
:102B2000E320FEF721F80520FEF72CF80020FEF741
:102B300029F80A20FEF726F80020FEF723F81C20CB
:102B4000FEF720F80020FEF71DF83320FEF71AF8F4
:102B50000020FEF717F84420FEF714F80020FEF7D7
:102B600011F85020FEF70EF80020FEF70BF8622057
:102B7000FEF708F80020FEF705F87820FEF702F8C7
:102B80000020FDF7FFFF8820FDF7FCFF0020FDF788
:102B9000F9FF9720FDF7F6FF0020FDF7F3FFA620D1
:102BA000FDF7F0FF0020FDF7EDFFB720FDF7EAFF8E
:102BB0000020FDF7E7FFC220FDF7E4FF0020FDF74E
:102BC000E1FFC720FDF7DEFF0020FDF7DBFFD1208E
:102BD000FDF7D8FF0020FDF7D5FFD520FDF7D2FF88
:102BE0000020FDF7CFFFDD20FDF7CCFF0020FDF733
:102BF000C9FFF320FDF7C6FF0020FDF7C3FFE42067
:102C0000FDF7B2FF0120FDF7BDFF0020FDF7BAFF81
:102C10000120FDF7B7FF0020FDF7B4FF0220FDF70C
:102C2000B1FF0020FDF7AEFF2A20FDF7ABFF00202B
:102C3000FDF7A8FF3C20FDF7A5FF0020FDF7A2FF50
:102C40004B20FDF79FFF0020FDF79CFF5D20FDF767
:102C500099FF0020FDF796FF7420FDF793FF0020F9
:102C6000FDF790FF8420FDF78DFF0020FDF78AFF20
:102C70009320FDF787FF0020FDF784FFA220FDF7DA
:102C800081FF0020FDF77EFFB320FDF77BFF0020D2
:102C9000FDF778FFBE20FDF775FF0020FDF772FFFE
:102CA000C420FDF76FFF0020FDF76CFFCD20FDF77E
:102CB00069FF0020FDF766FFD320FDF763FF0020CA
:102CC000FDF760FFDD20FDF75DFF0020FDF75AFFF7
:102CD000F320FDF757FF0020FDF754FFE520FDF737
:102CE00043FF0020FDF74EFF0020FDF74BFF0020C3
:102CF000FDF748FF0020FDF745FF0220FDF742FFEA
:102D00000020FDF73FFF2920FDF73CFF0020FDF7E5
:102D100039FF3C20FDF736FF0020FDF733FF4B2045
:102D2000FDF730FF0020FDF72DFF5D20FDF72AFFA6
:102D30000020FDF727FF7420FDF724FF0020FDF79A
:102D400021FF8420FDF71EFF0020FDF71BFF9320CD
:102D5000FDF718FF0020FDF715FFA220FDF712FF79
:102D60000020FDF70FFFB320FDF70CFF0020FDF75B
:102D700009FFBE20FDF706FF0020FDF703FFC4207A
:102D8000FDF700FF0020FDF7FDFECD20FDF7FAFE68
:102D90000020FDF7F7FED320FDF7F4FE0020FDF73D
:102DA000F1FEDC20FDF7EEFE0020FDF7EBFEF32048
:102DB000FDF7E8FE0020FDF7E5FEE620FDF7D4FE76
:102DC0001120FDF7DFFE0020FDF7DCFE3420FDF7CB
:102DD000D9FE0020FDF7D6FE5620FDF7D3FE0020D9
:102DE000FDF7D0FE7620FDF7CDFE0020FDF7CAFEF0
:102DF0007720FDF7C7FE0020FDF7C4FE6620FDF733
:102E0000C1FE0020FDF7BEFE8820FDF7BBFE0020BE
:102E1000FDF7B8FE9920FDF7B5FE0020FDF7B2FEE4
:102E2000BB20FDF7AFFE0020FDF7ACFE9920FDF7BB
:102E3000A9FE0020FDF7A6FE6620FDF7A3FE0020F8
:102E4000FDF7A0FE5520FDF79DFE0020FDF79AFE40
:102E50005520FDF797FE0020FDF794FE4520FDF775
:102E600091FE0020FDF78EFE4320FDF78BFE002033
:102E7000FDF788FE4420FDF785FE0020FDF782FE69
:102E8000E720FDF771FE3220FDF77CFE0020FDF704
:102E900079FE5520FDF776FE0020FDF773FE7620C3
:102EA000FDF770FE0020FDF76DFE6620FDF76AFE5F
:102EB0000020FDF767FE6720FDF764FE0020FDF7A8
:102EC00061FE6720FDF75EFE0020FDF75BFE8720B8
:102ED000FDF758FE0020FDF755FE9920FDF752FE44
:102EE0000020FDF74FFEBB20FDF74CFE0020FDF754
:102EF00049FE9920FDF746FE0020FDF743FE7720AE
:102F0000FDF740FE0020FDF73DFE4420FDF73AFEB0
:102F10000020FDF737FE5620FDF734FE0020FDF7B8
:102F200031FE2320FDF72EFE0020FDF72BFE33207F
:102F3000FDF728FE0020FDF725FE4520FDF722FEC7
:102F40000020FDF71FFEE820FDF70EFE0020FDF734
:102F500019FE0020FDF716FE9920FDF713FE002054
:102F6000FDF710FE8720FDF70DFE0020FDF70AFE9D
:102F70008820FDF707FE0020FDF704FE7720FDF70F
:102F800001FE0020FDF7FEFD6620FDF7FBFD0020A1
:102F9000FDF7F8FD8820FDF7F5FD0020FDF7F2FDB7
:102FA000AA20FDF7EFFD0020FDF7ECFDBB20FDF7AB
:102FB000E9FD0020FDF7E6FD9920FDF7E3FD002087
:102FC000FDF7E0FD6620FDF7DDFD0020FDF7DAFDF1
:102FD0005520FDF7D7FD0020FDF7D4FD5520FDF766
:102FE000D1FD0020FDF7CEFD4420FDF7CBFD0020F4
:102FF000FDF7C8FD4420FDF7C5FD0020FDF7C2FD2B
:103000005520FDF7BFFD0020FDF7BCFDE920FDF7D1
:10301000ABFDAA20FDF7B6FD0020FDF7B3FD0020B3
:10302000FDF7B0FD0020FDF7ADFD0020FDF79CFD94
:10303000AA20FDF7A7FDCF20FDF796FD0020FDF7A4
:10304000A1FD0020FDF79EFD0020FDF79BFD002067
:10305000FDF798FD0020FDF795FD0020FDF792FD9E
:103060000020FDF78FFD0020FDF78CFD0020FDF70F
:1030700089FD0020FDF786FD0020FDF783FD00207F
:10308000FDF780FD0020FDF77DFD0020FDF77AFDB6
:103090000020FDF777FD0020FDF774FD0020FDF70F
:1030A00071FDF020FDF760FD0020FDF76BFD502065
:1030B000FDF768FD0020FDF765FD0020FDF762FDCE
:1030C0000020FDF75FFDF320FDF74EFD0020FDF72A
:1030D00059FDF920FDF748FD0620FDF753FD1020AE
:1030E000FDF750FD2920FDF74DFD0020FDF74AFDBD
:1030F0003A20FDF739FD5520FDF744FD1120FDF77D
:1031000033FD642001F0BDFF2920FDF72DFD3520A2
:10311000FDF72AFD0020FDF735FD5120FDF724FDC8
:10312000FF20FDF72FFD5320FDF71EFD2C20FDF79E
:1031300029FD5520FDF718FD8220FDF723FD2C20E9
:10314000FDF712FD01F001BAFE48808845F21051EA
:1031500088427DD155214FF47040FDF753FDAA21DF
:103160004FF20100FDF74EFD52214FF20200FDF734
:1031700049FD08214FF20300FDF744FD01214FF204
:103180000400FDF73FFD0D214FF43040FDF73AFDFF
:103190000D214BF20100FDF735FD0D214BF2020030
:1031A000FDF730FD34214FF43640FDF72BFD34217F
:1031B0004BF20160FDF726FD34214BF20260FDF772
:1031C00021FD0D214FF43140FDF71CFD0D214BF287
:1031D0000110FDF717FD0D214BF20210FDF712FD56
:1031E00034214FF43740FDF70DFD34214BF20170CF
:1031F000FDF708FD34214BF20270FDF703FD0021BD
:103200004FF43240FDF7FEFC00214BF20120FDF7A8
:10321000F9FC00214BF20220FDF7F4FC24214FF4CD
:103220003840FDF7EFFC24214BF60100FDF7EAFCE6
:1032300024214BF60200FDF7E5FC01214FF43F404D
:10324000FDF7E0FC0F214FF43340FDF7DBFC00E01D
:10325000FDE30F214BF20130FDF7D4FC0F214BF2BF
:103260000230FDF7CFFC34214FF43940FDF7CAFCA2
:1032700034214BF60110FDF7C5FC34214BF602104A
:10328000FDF7C0FC08214FF43540FDF7BBFC0821D9
:103290004BF20150FDF7B6FC08214BF20250FDF74E
:1032A000B1FC03214FF44240FDF7ACFC24214FF464
:1032B0003A40FDF7A7FC24214BF60120FDF7A2FCC4
:1032C00024214BF60220FDF79DFC00214FF43C40E9
:1032D000FDF798FC78214BF60140FDF793FC0021A7
:1032E0004BF60240FDF78EFC00214FF43D40FDF708
:1032F00089FC78214BF60150FDF784FC00214BF648
:103300000250FDF77FFC00214FF43E40FDF77AFCB0
:1033100064214BF60160FDF775FC00214FF451402C
:10332000FDF770FC33214DF20110FDF76BFC00211D
:103330004DF20210FDF766FC34214DF20310FDF74B
:1033400061FC00214DF20410FDF75CFC3A214DF2C6
:103350000510FDF757FC00214DF20610FDF752FC59
:103360004A214DF20710FDF74DFC00214DF20810E7
:10337000FDF748FC5C214DF20910FDF743FC0021EC
:103380004DF20A10FDF73EFC81214DF20B10FDF7C6
:1033900039FC00214DF20C10FDF734FCA6214DF252
:1033A0000D10FDF72FFC00214DF20E10FDF72AFC49
:1033B000E5214DF20F10FDF725FC01214DF2101013
:1033C000FDF720FC13214DF21110FDF71BFC01212C
:1033D0004DF21210FDF716FC54214DF21310FDF7BB
:1033E00011FC01214DF21410FDF70CFC82214DF26D
:1033F0001510FDF707FC01214DF21610FDF702FC38
:10340000CA214DF21710FDF7FDFB02214DF21810F5
:10341000FDF7F8FB00214DF21910FDF7F3FB022137
:103420004DF21A10FDF7EEFB01214DF21B10FDF7D6
:10343000E9FB02214DF21C10FDF7E4FB34214DF2B3
:103440001D10FDF7DFFB02214DF21E10FDF7DAFB28
:1034500067214DF21F10FDF7D5FB02214DF2201020
:10346000FDF7D0FB84214DF22110FDF7CBFB0221AB
:103470004DF22210FDF7C6FBA4214DF22310FDF7FB
:10348000C1FB02214DF22410FDF7BCFBB7214DF228
:103490002510FDF7B7FB02214DF22610FDF7B2FB18
:1034A000CF214DF22710FDF7ADFB02214DF2281080
:1034B000FDF7A8FBDE214DF22910FDF7A3FB022149
:1034C0004DF22A10FDF79EFBF2214DF22B10FDF775
:1034D00099FB02214DF22C10FDF794FBFE214DF2D9
:1034E0002D10FDF78FFB03214DF22E10FDF78AFB07
:1034F00010214DF22F10FDF785FB03214DF2301006
:10350000FDF780FB33214DF23110FDF77BFB0321EA
:103510004DF23210FDF776FB6D214DF23310FDF7C1
:1035200071FB00214FF45240FDF76CFB33214DF24B
:103530000120FDF767FB00214DF20220FDF762FB41
:10354000342101E0740100204DF20320FDF75AFB05
:1035500000214DF20420FDF755FB3A214DF20520E4
:10356000FDF750FB00214DF20620FDF74BFB4A21F1
:103570004DF20720FDF746FB00214DF20820FDF734
:1035800041FB5C214DF20920FDF73CFB00214DF28F
:103590000A20FDF737FB81214DF20B20FDF732FBAE
:1035A00000214DF20C20FDF72DFBA6214DF20D2040
:1035B000FDF728FB00214DF20E20FDF723FBE5214E
:1035C0004DF20F20FDF71EFB01214DF21020FDF7FB
:1035D00019FB13214DF21120FDF714FB01214DF2CF
:1035E0001220FDF70FFB54214DF21320FDF70AFBCB
:1035F00001214DF21420FDF705FB82214DF215202B
:10360000FDF700FB01214DF21620FDF7FBFACA2160
:103610004DF21720FDF7F6FA02214DF21820FDF7C2
:10362000F1FA00214DF21920FDF7ECFA02214DF2DA
:103630001A20FDF7E7FA01214DF21B20FDF7E2FA0F
:1036400002214DF21C20FDF7DDFA34214DF21D2040
:10365000FDF7D8FA02214DF21E20FDF7D3FA6721BB
:103660004DF21F20FDF7CEFA02214DF22020FDF78A
:10367000C9FA84214DF22120FDF7C4FA02214DF24E
:103680002220FDF7BFFAA4214DF22320FDF7BAFA5C
:1036900002214DF22420FDF7B5FAB7214DF2252085
:1036A000FDF7B0FA02214DF22620FDF7ABFACF214B
:1036B0004DF22720FDF7A6FA02214DF22820FDF752
:1036C000A1FADE214DF22920FDF79CFA02214DF2EC
:1036D0002A20FDF797FAF2214DF22B20FDF792FAFE
:1036E00002214DF22C20FDF78DFAFE214DF22D2006
:1036F000FDF788FA03214DF22E20FDF783FA102101
:103700004DF22F20FDF77EFA03214DF23020FDF718
:1037100079FA33214DF23120FDF774FA03214DF28D
:103720003220FDF76FFA6D214DF23320FDF76AFA72
:1037300000214FF45340FDF765FA33214DF201307B
:10374000FDF760FA00214DF20230FDF75BFA3421FB
:103750004DF20330FDF756FA00214DF20430FDF72B
:1037600051FA3A214DF20530FDF74CFA00214DF2A5
:103770000630FDF747FA4A214DF20730FDF742FACD
:1037800000214DF20830FDF73DFA5C214DF2093081
:10379000FDF738FA00214DF20A30FDF733FA8121A6
:1037A0004DF20B30FDF72EFA00214DF20C30FDF7F3
:1037B00029FAA6214DF20D30FDF724FA00214DF231
:1037C0000E30FDF71FFAE5214DF20F30FDF71AFA22
:1037D00001214DF21030FDF715FA13214DF2113091
:1037E000FDF710FA01214DF21230FDF70BFA5421CA
:1037F0004DF21330FDF706FA01214DF21430FDF7BA
:1038000001FA82214DF21530FDF7FCF901214DF24C
:103810001630FDF7F7F9CA214DF21730FDF7F2F92E
:1038200002214DF21830FDF7EDF900214DF219306B
:10383000FDF7E8F902214DF21A30FDF7E3F9012115
:103840004DF21B30FDF7DEF902214DF21C30FDF781
:10385000D9F934214DF21D30FDF7D4F902214DF292
:103860001E30FDF7CFF967214DF21F30FDF7CAF981
:1038700002214DF22030FDF7C5F984214DF22130AF
:10388000FDF7C0F902214DF22230FDF7BBF9A4216A
:103890004DF22330FDF7B6F902214DF22430FDF749
:1038A000B1F9B7214DF22530FDF7ACF902214DF207
:1038B0002630FDF7A7F9CF214DF22730FDF7A2F909
:1038C00002214DF22830FDF79DF9DE214DF229301D
:1038D000FDF798F902214DF22A30FDF793F9F22114
:1038E0004DF22B30FDF78EF902214DF22C30FDF711
:1038F00089F9FE214DF22D30FDF784F903214DF2B7
:103900002E30FDF77FF910214DF22F30FDF77AF9B7
:1039100003214DF23030FDF775F933214DF231308E
:10392000FDF770F903214DF23230FDF76BF96D218F
:103930004DF23330FDF766F900214FF45440FDF7A6
:1039400061F933214DF20140FDF75CF900214DF2A0
:103950000240FDF757F934214DF20340FDF752F9CB
:1039600000214DF20440FDF74DF93A214DF205409A
:10397000FDF748F900214DF20640FDF743F94A21D1
:103980004DF20740FDF73EF900214DF20840FDF7EA
:1039900039F95C214DF20940FDF734F900214DF26F
:1039A0000A40FDF72FF981214DF20B40FDF72AF96E
:1039B00000214DF20C40FDF725F9A6214DF20D40F6
:1039C000FDF720F900214DF20E40FDF71BF9E5212E
:1039D0004DF20F40FDF716F901214DF21040FDF7B1
:1039E00011F913214DF21140FDF70CF901214DF2AF
:1039F0001240FDF707F954214DF21340FDF702F98B
:103A000001214DF21440FDF7FDF882214DF21540E1
:103A1000FDF7F8F801214DF21640FDF7F3F8CA2141
:103A20004DF21740FDF7EEF802214DF21840FDF778
:103A3000E9F800214DF21940FDF7E4F802214DF2BA
:103A40001A40FDF7DFF801214DF21B4000E005E3CD
:103A5000FDF7D8F802214DF21C40FDF7D3F83421D0
:103A60004DF21D40FDF7CEF802214DF21E40FDF74C
:103A7000C9F867214DF21F40FDF7C4F802214DF24D
:103A80002040FDF7BFF884214DF22140FDF7BAF840
:103A900002214DF22240FDF7B5F8A4214DF223405A
:103AA000FDF7B0F802214DF22440FDF7ABF8B72145
:103AB0004DF22540FDF7A6F802214DF22640FDF714
:103AC000A1F8CF214DF22740FDF79CF802214DF2DD
:103AD0002840FDF797F8DE214DF22940FDF792F8D6
:103AE00002214DF22A40FDF78DF8F2214DF22B40D4
:103AF000FDF788F802214DF22C40FDF783F8FE21F6
:103B00004DF22D40FDF77EF803214DF22E40FDF7DA
:103B100079F810214DF22F40FDF774F803214DF292
:103B20003040FDF76FF833214DF23140FDF76AF870
:103B300003214DF23240FDF765F86D214DF233401F
:103B4000FDF760F800214FF45540FDF75BF8332195
:103B50004DF20150FDF756F800214DF20250FDF7ED
:103B600051F834214DF20350FDF74CF800214DF28D
:103B70000450FDF747F83A214DF20550FDF742F8A1
:103B800000214DF20650FDF73DF84A214DF2075055
:103B9000FDF738F800214DF20850FDF733F85C21AD
:103BA0004DF20950FDF72EF800214DF20A50FDF7B5
:103BB00029F881214DF20B50FDF724F800214DF238
:103BC0000C50FDF71FF8A6214DF20D50FDF71AF825
:103BD00000214DF20E50FDF715F8E5214DF20F5082
:103BE000FDF710F801214DF21050FDF70BF81321ED
:103BF0004DF21150FDF706F801214DF21250FDF77C
:103C000001F854214DF21350FCF7FCFF01214DF255
:103C10001450FCF7F7FF82214DF21550FCF7F2FF2C
:103C200001214DF21650FCF7EDFFCA214DF217505D
:103C3000FCF7E8FF02214DF21850FCF7E3FF0021EA
:103C40004DF21950FCF7DEFF02214DF21A50FCF73D
:103C5000D9FF01214DF21B50FCF7D4FF02214DF298
:103C60001C50FCF7CFFF34214DF21D50FCF7CAFF6A
:103C700002214DF21E50FCF7C5FF67214DF21F5087
:103C8000FCF7C0FF02214DF22050FCF7BBFF84215E
:103C90004DF22150FCF7B6FF02214DF22250FCF705
:103CA000B1FFA4214DF22350FCF7ACFF02214DF2ED
:103CB0002450FCF7A7FFB7214DF22550FCF7A2FFD7
:103CC00002214DF22650FCF79DFFCF214DF22750E7
:103CD000FCF798FF02214DF22850FCF793FFDE21FC
:103CE0004DF22950FCF78EFF02214DF22A50FCF7CD
:103CF00089FFF2214DF22B50FCF784FF02214DF297
:103D00002C50FCF77FFFFE214DF22D50FCF77AFF7F
:103D100003214DF22E50FCF775FF10214DF22F506C
:103D2000FCF770FF03214DF23050FCF76BFF33219D
:103D30004DF23150FCF766FF03214DF23250FCF793
:103D400061FF6D214DF23350FCF75CFF00214FF411
:103D50005640FCF757FF33214DF20160FCF752FF4C
:103D600000214DF20260FCF74DFF34214DF203605B
:103D7000FCF748FF00214DF20460FCF743FF3A21B5
:103D80004DF20560FCF73EFF00214DF20660FCF7A6
:103D900039FF4A214DF20760FCF734FF00214DF254
:103DA0000860FCF72FFF5C214DF20960FCF72AFF49
:103DB00000214DF20A60FCF725FF81214DF20B60D6
:103DC000FCF720FF00214DF20C60FCF71BFFA62141
:103DD0004DF20D60FCF716FF00214DF20E60FCF76E
:103DE00011FFE5214DF20F60FCF70CFF01214DF2B0
:103DF0001060FCF707FF13214DF21160FCF702FF82
:103E000001214DF21260FCF7FDFE54214DF21360CA
:103E1000FCF7F8FE01214DF21460FCF7F3FE82215D
:103E20004DF21560FCF7EEFE01214DF21660FCF735
:103E3000E9FECA214DF21760FCF7E4FE02214DF2C3
:103E40001860FCF7DFFE00214DF21960FCF7DAFE86
:103E500002214DF21A60FCF7D5FE01214DF21B60E4
:103E6000FCF7D0FE02214DF21C60FCF7CBFE3421A2
:103E70004DF21D60FCF7C6FE02214DF21E60FCF7FC
:103E8000C1FE67214DF21F60FCF7BCFE02214DF21E
:103E90002060FCF7B7FE84214DF22160FCF7B2FEF2
:103EA00002214DF22260FCF7ADFEA4214DF2236009
:103EB000FCF7A8FE02214DF22460FCF7A3FEB72117
:103EC0004DF22560FCF79EFE02214DF22660FCF7C4
:103ED00099FECF214DF22760FCF794FE02214DF2AE
:103EE0002860FCF78FFEDE214DF22960FCF78AFE88
:103EF00002214DF22A60FCF785FEF2214DF22B6083
:103F0000FCF780FE02214DF22C60FCF77BFEFE21C7
:103F10004DF22D60FCF776FE03214DF22E60FCF78A
:103F200071FE10214DF22F60FCF76CFE03214DF263
:103F30003060FCF767FE33214DF23160FCF762FE22
:103F400003214DF23260FCF75DFE6D214DF23360CE
:103F5000FCF758FE55214FF47040FCF753FEAA21A0
:103F60004FF20100FCF74EFE52214FF20200FCF727
:103F700049FE08214FF20300FCF744FE00214FF2F6
:103F80000400FCF73FFECC214FF43140FCF73AFE31
:103F900000214BF20110FCF735FE05214FF43640AD
:103FA000FCF730FE70214FF43740FCF72BFE7021F8
:103FB0004BF20170FCF726FE01214FF43840FCF76C
:103FC00021FE03214BF60100FCF71CFE03214BF6FA
:103FD0000200FCF717FE03214BF60300FCF712FE6C
:103FE00002214FF43C40FCF70DFE00214BF601404E
:103FF000FCF708FE00214BF60240FCF703FED0213F
:104000004FF44940FCF7FEFD02214CF60110FCF78D
:10401000F9FD50214CF60210FCF7F4FD50214CF64E
:104020000310FCF7EFFD50214CF60410FCF7EAFDFD
:1040300000214FF45450FCF7E5FD55214FF4685032
:10404000FCF7E0FD4FF48850FCF78EFD782000F07F
:10405000F4FF4FF42450FCF787FD76E2FE48808899
:1040600041F663118842F8D1E220FCF77DFD4FF460
:104070008070FA490861400048611D20F8490860D5
:104080008020F6494861086180000861401008619D
:10409000400048610220F24908608020EF494861F1
:1040A00008618000086140100861400048610420F8
:1040B000EB4908608020E949486108618000086197
:1040C000642000F0BAFFE020FCF74EFD4FF4807052
:1040D000E2490861400048610120E1490860802010
:1040E000DE4948610861800008610A2000F0C9FFCC
:1040F000E020FCF739FD4FF48070D849086140009A
:1041000048610320D64908608020D449486108618D
:10411000800008610C2000F0B4FF0120FCF724FDB2
:104120000A2000F0AEFFE620FCF71EFD4FF4807081
:10413000CA490861400048612F20C94908608020B1
:10414000C64948610861800008614010086140006C
:104150004861FF20C24908608020C0494861086169
:10416000800008614010086140004861FF20BC49A0
:1041700008608020B9494861086180000861B0206A
:10418000FCF7F2FC4FF48070B449086140004861CC
:104190002020B34908608020B04948610861800050
:1041A000086140100861400048610020AC49086087
:1041B0008020AA49486108618000086140100861B8
:1041C000400048610320A64908608020A349486157
:1041D000086180000861401008614000486140F2B9
:1041E0001F309F49086080209C4948610861800019
:1041F000086140100861400048610120984908604A
:10420000802096494861086180000861401008617B
:104210004000486140F2DF109149086080208F49DA
:1042200048610861800008614010086140004861F1
:1042300000208B490860802088494861086180001F
:104240000861B420FCF790FC4FF48070834908614A
:104250004000486104208249086080207F4948610D
:10426000086180000861401008614000486140F228
:104270001F407B49086080207849486108618000C0
:1042800008614010086140004861002074490860DE
:10429000802072494861086180000861401008610F
:1042A000400048612E206E49086080206B494861BB
:1042B00008618000086140100861400048610020EA
:1042C000674908608020654948610861800008618D
:1042D000401008614000486100206149086080206A
:1042E0005E49486108618000086140100861400033
:1042F000486100205A490860802058494861086197
:104300008000086140100861400048610020544965
:104310000860802051494861086180000861B6202A
:10432000FCF722FC4FF480704C4908614000486162
:1043300002204B490860802048494861086180009C
:10434000086140100861400048614FF4037044491F
:104350000860802041494861086180000861401080
:1043600008614000486100203D49086080203B49C9
:1043700048610861800008614010086140004861A0
:10438000172037490860802034494861086180005F
:1043900008614010086140004861152030490860FC
:1043A00080202E4948610861800008614010086142
:1043B0004000486100202A49086080202749486160
:1043C00008618000086140100861400048610020D9
:1043D0002349086080202149486108618000086104
:1043E000F020FCF7C1FB4FF480701C4908614000CD
:1043F000486103201A490860802018494861086113
:10440000800008612920FCF7AFFBD020FCF7ACFB53
:104410004FF4807011490861400048610020104944
:10442000086080200D494861086180000861BE2055
:10443000FCF79AFB4FF4807008490861400048611E
:104440000520074908608020044948610861800010
:1044500008614010086105E074010020001001406F
:104460000C0C014040004861FE20F94908608020A2
:10447000F849486108618000086140100861400007
:1044800048610120F24908608020F24948610861D2
:104490008000086140100861400048610020EC493C
:1044A00008608020EB494861086180000861401085
:1044B0000861400048610020E54908608020E54926
:1044C000486108618000086140100861400048614F
:1044D0000020DF4908608020DE49486108618000D3
:1044E0000861B820FCF740FB4FF48070D94908619F
:1044F000400048610320D64908608020D5494861C2
:104500000861800008614010086140004861012096
:10451000CF4908608020CF49486108618000086168
:10452000BA20FCF721FB4FF48070CA4908614000B3
:1045300048610120C64908608020C6494861086179
:10454000800008616420FDF78EF80020FDF7EEF88A
:104550000120C14908604FF6FF70FDF74EFB08BD12
:104560002DE9F04F05460E4617469846DDF824A083
:104570004FF0000B781B401C1FFA80FB34461EE0F6
:1045800021462846FCF77BFBFCF758FB4FF000095F
:1045900011E04FF48070AF49086140004861AC48B9
:1045A000C0F800A08020486108618000086109F11E
:1045B00001001FFA80F9D945EBDB601C84B2444549
:1045C000DEDDBDE8F08F2DE9F84F07460D46904639
:1045D0009946DDF828B0A8EB0700401C1FFA80FAC6
:1045E000A9EB0500401C80B20090002420E02819AF
:1045F00081B23846FCF743FBFCF720FB002613E0B2
:104600004FF48070934908614000486104FB0A60E0
:104610003BF810008E49086080208E49486108618F
:1046200080000861701C86B25645E9DB601C84B2CC
:1046300000988442DBDBBDE8F88F2DE9FF4F84B0A2
:1046400081468A460020039002900698A0EB090557
:104650000798A0EB0A06CDF80490CDF800A0002D35
:1046600001DD012705E00DB9002702E04FF0FF371B
:104670006D42002E02DD4FF0010806E016B94FF042
:10468000000802E04FF0FF387642B54201DD2C46CB
:1046900000E034464FF0000B21E0009A91B2019AFD
:1046A00090B2FCF78BFE03982844039002983044A4
:1046B00002900398A04205DD0398001B0390019827
:1046C000384401900298A04205DD0298001B029038
:1046D0000098404400900BF101001FFA80FB601C21
:1046E0008345DADD08B0BDE8F08FF0B504460D462D
:1046F00016461F462B46324629462046FFF79DFFA9
:104700003B46224629462046FFF797FF3B46324666
:1047100039462046FFF791FF3B4632462946304650
:10472000FFF78BFFF0BD2DE9F04306460F4690469C
:10473000002445460320A0EB48093CE07A1B91B2D7
:10474000321990B2FCF73AFE3A1B91B2721990B24C
:10475000FCF734FE3A1991B2721990B2FCF72EFEB2
:104760007A1991B2321990B2FCF728FE7A1991B2F7
:10477000321B90B2FCF722FE3A1991B2721B90B232
:10478000FCF71CFE7A1B91B2321B90B2FCF716FEAE
:104790003A1B91B2721B90B2FCF710FE641CB9F187
:1047A000000F03DAA000801D814404E0601B80003C
:1047B0000A3081446D1EAC42C0DDBDE8F0832DE9B6
:1047C000F84F80460E4617461C46B3462046E31770
:1047D00004EB5373DB1021464FEAE47C04EB5C7C72
:1047E0004FEAEC0CA4EBCC0CBCF1000F02D04FF064
:1047F000010C01E04FF0000C6344224604EBD27C34
:104800004FEA6C0C03FB0CF3DBB20093A7F1200022
:10481000C7B2002563E00C2C07D107EB47000F4916
:1048200001EB800010F8059020E0102C05D10C4819
:1048300000EB071010F8059018E0182C14D107EBC6
:10484000C700084901EB800010F805900EE0000059
:104850000C0C014000100140A80122423C9D0008C0
:10486000B0A10008A0A70008BDE8F88F4FF0000A2B
:104870002FE009F0800030B18F4802883146404671
:10488000FCF7B6FD07E00A9828B98C480288314643
:104890004046FCF7ADFD4FEA49604FEA1069701CD5
:1048A00086B287484088B04200DCDDE7A6EB0B000B
:1048B000A0420AD15E4608F101001FFA80F8804844
:1048C0000088404500DCCFE706E00AF1010000F077
:1048D000FF0ABAF1080FCCDB00BF681CC5B2009814
:1048E000854298DB00BFBFE710B50246012000E01B
:1048F00050430B1EA1F10104E1B2F9D110BD2DE925
:10490000FF4F81B0074691461E460E9D4FF0000AAC
:10491000002439E0301B401EC1B20A20FFF7E4FF3B
:10492000B9FBF0F00A21B0FBF1F201FB1208BAF179
:10493000000F16D1701EA04213DDB8F1000F0ED18A
:104940000020AB4605EBDB71491001FB04710090C0
:1049500088B22B4620220299FFF731FF12E04FF078
:10496000010A0020AB4605EBDB71491001FB047125
:10497000009088B208F13001CAB22B460299FFF7C5
:104980001EFF00BF601CC4B2B442C3DB05B0BDE86B
:10499000F08F2DE9FF4F82B0064692461F46DDE9B3
:1049A0000F480020019000254DE0781B401EC1B249
:1049B0000A20FFF799FFBAFBF0F00A21B0FBF1F2F1
:1049C00001FB1209019850BB781EA84227DDB9F1FE
:1049D000000F22D108F0800078B108F00100A34652
:1049E00004EBDB71491001FB0561009088B223469E
:1049F00030220399FFF7E3FE0EE008F00100A34622
:104A000004EBDB71491001FB0561009088B223467D
:104A100020220399FFF7D3FE13E00120019008F054
:104A20000100A34604EBDB71491001FB0561009016
:104A300088B209F13001CAB223460399FFF7BFFEDD
:104A400000BF681CC5B2BD42AFDB06B0BDE8F08F49
:104A50002DE9F84704460D4690469946DDE9096779
:104A600004F0FF0A08EB04001FFA80F809EB0500C8
:104A70001FFA80F916E0444502DB5446A81985B2B6
:104A80004D4500DB14E0002000903A78334629467B
:104A90002046FFF794FE304606EBD07104EB61012F
:104AA0008CB27F1C38787E2802DC38782028E2DA45
:104AB00000BFBDE8F88700001400002016000020A9
:104AC0007401002008B503208DF8000000208DF847
:104AD00001008DF8020001208DF80300684601F006
:104AE00046F908BDF0B503460C461546642093FB15
:104AF000F0F0C6B2642093FBF0F700FB1730C1B2B0
:104B0000132E02DD01F16400C1B20846CF1701EB9C
:104B1000977701EBA707BAB2072092FBF0F700FBEB
:104B2000172082B25719601EDFF8F8C21CF8000087
:104B3000384482B2CF1701EB9777BF10A1EB8707FC
:104B40001FB9032C01DA501E82B2072092FBF0F746
:104B500000FB1720C0B2F0BD0146CA1701EB9272EC
:104B60009210A1EB820292B9642091FBF0F200FB5B
:104B7000121050B94FF4C87091FBF0F200FB121004
:104B800008B9012070470020FCE70120FAE7002067
:104B9000F8E770B500260024002501F039FA064632
:104BA000A148B6FBF0F4A1480088A0423CD09F4940
:104BB0000C8040F2B27510E02846FFF7CDFF40B1FF
:104BC000B4F5B77F02D3A4F5B77404E0681C85B2CE
:104BD00006E0A4F26D14681C85B2B4F5B67FEBD87C
:104BE00000BF93488580002516E091498888FFF72B
:104BF000B3FF30B1012D04D11D2C01D31D3C09E0C0
:104C00000CE08C48405DA04203D88A48405D241ADD
:104C100000E003E0681C85B21C2CE6D200BF681CD3
:104C200083498871601CC8717F48B6FBF0F100FBB6
:104C300011644FF46160B4FBF0F07D4908704FF4EB
:104C40006160B4FBF0F100FB11403C21B0FBF1F0DE
:104C5000774948704FF46160B4FBF0F100FB1140FC
:104C60003C21B0FBF1F201FB1200714988700B4648
:104C7000DA7999799888FFF735FF6D490872002035
:104C800070BD2DE9F05F06460F4690469946DDE976
:104C90000AAB002440F2B270864203DB40F63300D8
:104CA000864202DD0120BDE8F09F40F2B2750AE0C5
:104CB0002846FFF751FF10B15F48044401E05F4808
:104CC0000444681C85B2B542F2DB781EC7B20025E9
:104CD00010E05848405D40F2A321484304EBC01463
:104CE0003046FFF739FF18B1012D01D14E48044479
:104CF000681C85B2BD42ECDBA8F1010040F2A321A3
:104D0000484304EBC014C9EB4910C0EB092004EB85
:104D10000014CAEB0A1004EB80045C4401214FF03C
:104D2000C05000F0C4FD012001F0F7F8204601F06A
:104D300078F901F0A9F9FFF72CFF0020B3E71CB5C3
:104D4000002401214FF0C05000F0B1FD012001F01E
:104D5000E4F8042001F0A9F845F2500188423FD060
:104D600001F06EF8012000F002FD04E0601CC4B206
:104D70000A2000F086F9412000F061FC0028F5D0FF
:104D8000FA2C01DB01201CBD4FF4807000F00BFDFC
:104D9000012000F00EFD01F077F901F07EF901210C
:104DA000084601F015F901F06FF901F01EF947F618
:104DB000FF7001F043F901F067F9372000210A2361
:104DC0000222CDE900100C2140F2D970FFF759FF03
:104DD00001F014F945F25001042001F05AF807E0FF
:104DE00001F05BF90121084601F0F2F801F04CF9FD
:104DF000FFF768FEFFF7CDFE0020C4E710B50120E5
:104E000001F070F908B1FFF7C4FE022001F06AF961
:104E100010B1022001F076F9052001F073F901F0DC
:104E200033F910BDFCB400088051010018000020C7
:104E30008201002008B500080085E2018033E1010D
:104E400008B50121142000F025FD0121374800F0AC
:104E500036FB4FF40040ADF8000048208DF8030009
:104E60006946334800F05AFA2020ADF80000482087
:104E70008DF8030069462F4800F050FA0120ADF884
:104E8000000028208DF803006946294800F046FA02
:104E900008BD10B5044614B1012027490870264802
:104EA000007860B32021234800F0CBFA58B14FF4CA
:104EB00000411F4800F0C5FA28B101211C4800F04C
:104EC000C0FA01281BD10A2000F0DBF800201A49A3
:104ED00008702021174800F0B4FA08B9032010BD6B
:104EE0004FF40041124800F0ACFA08B90220F6E78E
:104EF00001210F4800F0A5FA012814D1EFE7202185
:104F00000C4800F09EFA01280DD1C103084800F0BA
:104F100098FA012807D10121054800F092FA10B94A
:104F20000120054908700020D9E700000002300088
:104F300000080140001001401A00002030B589B07F
:104F400005460C460121042000F0B1FC0121082097
:104F500000F0A0FC0121084600F09CFC4020ADF8C8
:104F6000200018208DF8230003208DF8220008A9C6
:104F7000184800F0D3F9ADF81850ADF814400020EF
:104F8000ADF81A00ADF8160005A9134801F098F91C
:104F90006020ADF804000120ADF806000020ADF857
:104FA0000A00ADF80C0001A90B4801F0C6F9082170
:104FB000094801F011FE0121074801F0E9FC012137
:104FC000054801F0D9FD0121034801F0D5FC09B0E5
:104FD00030BD0000000C01400008004008B5012170
:104FE000042000F057FC0220ADF8000028208DF8C6
:104FF000030003208DF802006946024800F08EF994
:1050000008BD00000008014010B56FF0040000F07A
:10501000F8FE2E4800682E49B0FBF1F02D490870CB
:105020000846007800EB4001C1EBC0104FF6FF715D
:1050300001EAC0002849088010BD0146254A1278BF
:105040004A434FF0E0235A6100229A611A461269DE
:1050500042F001021A6100BF4FF0E022106900F037
:1050600001021AB100F48032002AF5D04FF0E0229C
:10507000126922F001024FF0E0231A6100229A61C6
:1050800070470146144A12884A434FF0E0235A61A0
:1050900000229A611A46126942F001021A6100BFA9
:1050A0004FF0E022106900F001021AB100F48032E2
:1050B000002AF5D04FF0E022126922F001024FF0F1
:1050C000E0231A6100229A6170470000000000206E
:1050D00000127A001C0000201E00002000BF704754
:1050E00000BF4A4A128802F04002002AF9D0C2B238
:1050F000464B1B1D1A80704710B586B0044601212F
:1051000044F2040000F0C6FB4FF40070ADF8140048
:1051100003208DF8160018208DF8170005A93C48CB
:1051200000F0FCF84FF48060ADF8140004208DF816
:10513000170005A9364800F0F1F825208DF8000089
:1051400003208DF801008DF8020001208DF8030086
:10515000684600F00CFE01940020ADF80800ADF8A0
:105160000A00ADF80C00ADF810000C20ADF80E00F0
:1051700001A9264800F035FC012240F225512348C0
:1051800000F0C7FC0121214800F0B7FC06B010BDBB
:1051900010B540F225511D4800F0A0FD10B31B488A
:1051A00000F01CFDC4B21B48008800F40040C8B9E0
:1051B0001848008800F4804060B10A2C03D0002019
:1051C0001449088020E01348008840F40040114949
:1051D000088019E00D2C06D10E48008840F480406C
:1051E0000C49088010E00B480088C0F30D000A4904
:1051F0000C5408480088401C06490880084600886E
:10520000C72801DD0020088010BD000000380140E3
:1052100000080140240000208C010020094880473C
:1052200009480047FEE7FEE7FEE7FEE7FEE7FEE788
:10523000FEE7FEE7FEE7FEE704480549054A064BA0
:1052400070470000170A000831010008B80200206A
:10525000B8080020B8040020B804002010B50446A7
:10526000CC48844208D10121042000F02DFB00210C
:10527000042000F029FB46E0C748844208D1012100
:10528000082000F021FB0021082000F01DFB3AE07F
:10529000C248844208D10121102000F015FB0021F2
:1052A000102000F011FB2EE0BD48844208D10121FE
:1052B000202000F009FB0021202000F005FB22E067
:1052C000B848844208D10121402000F0FDFA0021B5
:1052D000402000F0F9FA16E0B348844208D10121D9
:1052E000802000F0F1FA0021802000F0EDFA0AE0C1
:1052F000AE48844207D10121801500F0E5FA002173
:10530000A01500F0E1FA10BD10B50121084600F02B
:10531000DBFA0021012000F0D7FA10BD2DE9F041A1
:10532000024600250026002000230024002791F8D3
:1053300003C00CF00F0591F803C00CF0100CBCF189
:10534000000F03D091F802C04CEA050591F800C0A7
:10535000BCF1000F31D0146800202BE04FF0010C9D
:105360000CFA00F3B1F800C00CEA03069E4220D10B
:1053700083004FF00F0C0CFA03F7BC4305FA03FC53
:105380004CEA040491F803C0BCF1280F06D14FF099
:10539000010C0CFA00FCC2F814C00AE091F803C03A
:1053A000BCF1480F05D14FF0010C0CFA00FCC2F81B
:1053B00010C0401C0828D1D31460B1F800C0BCF163
:1053C000FF0F34DD546800202EE000F1080C4FF090
:1053D000010808FA0CF3B1F800C00CEA03069E427B
:1053E00021D183004FF00F0C0CFA03F7BC4305FAF0
:1053F00003FC4CEA040491F803C0BCF1280F05D16A
:1054000000F1080C08FA0CF8C2F8148091F803C0F7
:10541000BCF1480F07D100F1080C4FF0010808FA61
:105420000CF8C2F81080401C0828CED35460BDE8A8
:10543000F0814FF6FF710180022181700421C1705B
:1054400070470246002093680B400BB1012000E03A
:10545000002070470146886880B2704702460020ED
:10546000D3680B400BB1012000E0002070470146DB
:10547000C86880B2704701617047416170470AB1E6
:10548000016100E041617047C16070474FF48032B4
:105490000A43826181618261826982697047024642
:1054A0000020434B18684FF68073184040EA021002
:1054B00008433F4B186070473E49C8617047F0B5DC
:1054C0000A46002300240021002500F00046B6F122
:1054D000004F02D1364EF16901E0354E7168C0F3DC
:1054E000034583B200F44016B6F5401F08D121F001
:1054F00070612F4E766826F070662D4F7E6012E048
:1055000000F48016B6F5801F06D1032606FA05F4CE
:10551000A14341F0706106E0460D360103FA06F63C
:10552000B14341F0706122B1460D360103FA06F62F
:10553000314300F00046B6F1004F02D11C4EF1613C
:1055400001E01B4E7160F0BD30B500228B071C0FCF
:105550000F2303FA04F2164B08338C1053F824304F
:105560009343134C08348D1044F8253023468C1097
:1055700053F824308C07240F00FA04F423430C4C16
:1055800008348D1044F8253030BD0A49DC310860FC
:105590007047000000080140000C0140001001406D
:1055A0000014014000180140001C0140002001408F
:1055B0000000014000002042DF48006840F0010088
:1055C000DD49086008464068DC490840DA4948601F
:1055D00008460068DA490840D7490860084600686C
:1055E00020F4802008600846406820F4FE004860EF
:1055F0004FF41F0088607047CF49096821F480315B
:10560000CD4A11601146096821F480211160B0F57E
:10561000803F03D0B0F5802F0ED106E0C64909685F
:1056200041F48031C44A116007E0C349096841F47C
:10563000A021C14A116000E000BF00BF704710B553
:1056400001460022002300204A11012A02D1BA4C4F
:10565000236806E0022A02D1B74C236A01E0B64C67
:10566000636A01F01F02012494401C400CB1012028
:1056700000E0002010BD38B5002000900024002577
:1056800000BF3120FFF7DBFF05460098401C00906B
:105690000098B0F5A06F01D0002DF2D03120FFF7B7
:1056A000CEFF08B1012400E00024204638BD0146A9
:1056B0000020A14A106820F0F80040EAC100106004
:1056C0007047A04908607047024600209A4B58680E
:1056D00020F47C1042EA01031843974B586070474E
:1056E00098490866704701460020934A506820F0A8
:1056F00003000843506070478F48406800F00C007A
:105700007047014600208C4A506820F0F0000843A2
:105710005060704701460020874A506820F4E060DE
:1057200008435060704701460020834A506820F4C7
:10573000605040EAC1005060704729B17E4A527AF9
:1057400002437D4B5A7204E07B4A527A82437A4B81
:105750005A7270477B49D831086070470146002073
:10576000754A506820F4404008435060704700215B
:10577000714A20321170704A82F82010012802D03C
:1057800004280AD104E001216B4A2032117005E09F
:105790000521694A2032117000E000BF00BF704748
:1057A0006949086070476449096A0143624A1162A5
:1057B0007047654944390860704730B500210022C0
:1057C000002400235C4D6D6805F00C0121B1042913
:1057D00005D0082923D105E05C4D056022E05B4D32
:1057E00005601FE0544D6D6805F47012524D6D68F0
:1057F00005F48034022505EB92421CB9544D554303
:1058000005600BE04C4D6D6805F400351DB1504D41
:105810005543056002E04D4D5543056002E04B4D98
:10582000056000BF00BF444D6D6805F0F001090937
:10583000484D6B5C0568DD4045603F4D6D6805F483
:10584000E061090A434D6B5C4568DD4085603A4D77
:105850006D6805F46051C90A3E4D6B5C4568DD40DA
:10586000C560354D6D6805F44041890B3A4D6B5C60
:10587000C568B5FBF3F5056130BD29B12E4A526903
:1058800002432D4B5A6104E02B4A526982432A4B52
:105890005A61704729B1284A92690243264B9A619E
:1058A00004E0254A92698243234B9A61704729B1EB
:1058B000214AD2690243204BDA6104E01E4AD269D0
:1058C00082431D4BDA61704729B11B4AD2680243FB
:1058D000194BDA6004E0184AD2688243164BDA604A
:1058E000704729B1144A12690243134B1A6104E04C
:1058F000114A12698243104B1A61704712494039AC
:10590000086070470F49C86470470B49C8717047F9
:105910000948406A40F08070074948627047014674
:105920000020054A92680A400AB1012000E00020E8
:105930007047014988727047001002400000FFF86C
:10594000FFFFF6FE000042428004424200127A004D
:1059500000093D00260000203600002010B5044656
:10596000FB48844209D101218803FFF7ADFF0021E4
:105970004FF48040FFF7A8FF32E0F648844209D197
:1059800001214804FFF7ADFF00214FF40030FFF77D
:10599000A8FF25E0F048844209D101218804FFF7DF
:1059A000A0FF00214FF48020FFF79BFF18E0EB4899
:1059B000844209D10121C804FFF793FF00214FF46D
:1059C0000020FFF78EFF0BE0E548844208D101215B
:1059D0000805FFF786FF00214FF48010FFF781FFD5
:1059E00010BD2DE9F04786B005460E460024A246BC
:1059F00000BFA1460027B08900B100BF2F462C8A06
:105A00004CF6FF700440F08804432C82AC894EF6BB
:105A1000F3100440B0883189084371890843044376
:105A2000AC81AC8A4FF6FF400440B0890443AC829D
:105A300001A8FFF7C2FEC648874202D1DDF810A0D8
:105A400001E0DDF80CA0A88900F4004040B10AEBA9
:105A5000CA0000EB0A1031684900B0FBF1F807E01A
:105A60000AEBCA0000EB0A1031688900B0FBF1F8BC
:105A70006420B8FBF0F004012009642101FB1089C7
:105A8000A88900F4004040B1322000EBC900B0FB0F
:105A9000F1F000F00700044308E0322000EB0910A9
:105AA0006421B0FBF1F000F00F0004432C8106B03C
:105AB000BDE8F0874FF41651016000218180C1805C
:105AC00001810C21418100218181704710B502467E
:105AD0000020108A4FF2FF0318400B884C882343A4
